{"abi":[{"type":"constructor","inputs":[],"stateMutability":"nonpayable"},{"type":"function","name":"allowance","inputs":[{"name":"owner","type":"address","internalType":"address"},{"name":"spender","type":"address","internalType":"address"}],"outputs":[{"name":"","type":"uint256","internalType":"uint256"}],"stateMutability":"view"},{"type":"function","name":"allowlist","inputs":[{"name":"","type":"address","internalType":"address"}],"outputs":[{"name":"","type":"bool","internalType":"bool"}],"stateMutability":"view"},{"type":"function","name":"allowlistEnabled","inputs":[],"outputs":[{"name":"","type":"bool","internalType":"bool"}],"stateMutability":"view"},{"type":"function","name":"approve","inputs":[{"name":"spender","type":"address","internalType":"address"},{"name":"value","type":"uint256","internalType":"uint256"}],"outputs":[{"name":"","type":"bool","internalType":"bool"}],"stateMutability":"nonpayable"},{"type":"function","name":"asset","inputs":[],"outputs":[{"name":"","type":"address","internalType":"address"}],"stateMutability":"view"},{"type":"function","name":"authorizedRelayers","inputs":[{"name":"","type":"address","internalType":"address"}],"outputs":[{"name":"","type":"bool","internalType":"bool"}],"stateMutability":"view"},{"type":"function","name":"balanceOf","inputs":[{"name":"account","type":"address","internalType":"address"}],"outputs":[{"name":"","type":"uint256","internalType":"uint256"}],"stateMutability":"view"},{"type":"function","name":"convertToAssets","inputs":[{"name":"shares","type":"uint256","internalType":"uint256"}],"outputs":[{"name":"","type":"uint256","internalType":"uint256"}],"stateMutability":"view"},{"type":"function","name":"convertToShares","inputs":[{"name":"assets","type":"uint256","internalType":"uint256"}],"outputs":[{"name":"","type":"uint256","internalType":"uint256"}],"stateMutability":"view"},{"type":"function","name":"decimals","inputs":[],"outputs":[{"name":"","type":"uint8","internalType":"uint8"}],"stateMutability":"view"},{"type":"function","name":"deposit","inputs":[{"name":"assets","type":"uint256","internalType":"uint256"},{"name":"receiver","type":"address","internalType":"address"}],"outputs":[{"name":"shares","type":"uint256","internalType":"uint256"}],"stateMutability":"nonpayable"},{"type":"function","name":"depositCap","inputs":[],"outputs":[{"name":"","type":"uint256","internalType":"uint256"}],"stateMutability":"view"},{"type":"function","name":"depositWithERC7702","inputs":[{"name":"assets","type":"uint256","internalType":"uint256"},{"name":"receiver","type":"address","internalType":"address"},{"name":"gasPayment","type":"tuple","internalType":"struct IERC7702.GasPayment","components":[{"name":"user","type":"address","internalType":"address"},{"name":"token","type":"address","internalType":"address"},{"name":"amount","type":"uint256","internalType":"uint256"},{"name":"deadline","type":"uint256","internalType":"uint256"},{"name":"signature","type":"bytes","internalType":"bytes"}]}],"outputs":[{"name":"shares","type":"uint256","internalType":"uint256"}],"stateMutability":"nonpayable"},{"type":"function","name":"depositWithPermit2","inputs":[{"name":"assets","type":"uint256","internalType":"uint256"},{"name":"receiver","type":"address","internalType":"address"},{"name":"p","type":"tuple","internalType":"struct IPermit2.PermitSingle","components":[{"name":"token","type":"address","internalType":"address"},{"name":"amount","type":"uint160","internalType":"uint160"},{"name":"expiration","type":"uint48","internalType":"uint48"},{"name":"nonce","type":"uint48","internalType":"uint48"},{"name":"spender","type":"address","internalType":"address"},{"name":"sigDeadline","type":"uint48","internalType":"uint48"}]},{"name":"sig","type":"tuple","internalType":"struct IPermit2.Signature","components":[{"name":"v","type":"uint8","internalType":"uint8"},{"name":"r","type":"bytes32","internalType":"bytes32"},{"name":"s","type":"bytes32","internalType":"bytes32"}]}],"outputs":[{"name":"shares","type":"uint256","internalType":"uint256"}],"stateMutability":"nonpayable"},{"type":"function","name":"depositWithPermit2Relayed","inputs":[{"name":"owner","type":"address","internalType":"address"},{"name":"assets","type":"uint256","internalType":"uint256"},{"name":"receiver","type":"address","internalType":"address"},{"name":"p","type":"tuple","internalType":"struct IPermit2.PermitSingle","components":[{"name":"token","type":"address","internalType":"address"},{"name":"amount","type":"uint160","internalType":"uint160"},{"name":"expiration","type":"uint48","internalType":"uint48"},{"name":"nonce","type":"uint48","internalType":"uint48"},{"name":"spender","type":"address","internalType":"address"},{"name":"sigDeadline","type":"uint48","internalType":"uint48"}]},{"name":"sig","type":"tuple","internalType":"struct IPermit2.Signature","components":[{"name":"v","type":"uint8","internalType":"uint8"},{"name":"r","type":"bytes32","internalType":"bytes32"},{"name":"s","type":"bytes32","internalType":"bytes32"}]}],"outputs":[{"name":"shares","type":"uint256","internalType":"uint256"}],"stateMutability":"nonpayable"},{"type":"function","name":"divest","inputs":[{"name":"assets","type":"uint256","internalType":"uint256"}],"outputs":[],"stateMutability":"nonpayable"},{"type":"function","name":"erc7702Relayer","inputs":[],"outputs":[{"name":"","type":"address","internalType":"contract IERC7702"}],"stateMutability":"view"},{"type":"function","name":"harvest","inputs":[{"name":"yieldAssets","type":"uint256","internalType":"uint256"}],"outputs":[],"stateMutability":"nonpayable"},{"type":"function","name":"initialize","inputs":[{"name":"_asset","type":"address","internalType":"contract IERC20"},{"name":"_admin","type":"address","internalType":"address"},{"name":"_name","type":"string","internalType":"string"},{"name":"_symbol","type":"string","internalType":"string"},{"name":"_allowlistEnabled","type":"bool","internalType":"bool"},{"name":"_depositCap","type":"uint256","internalType":"uint256"},{"name":"_minDeposit","type":"uint256","internalType":"uint256"},{"name":"_permit2","type":"address","internalType":"address"}],"outputs":[],"stateMutability":"nonpayable"},{"type":"function","name":"invest","inputs":[{"name":"assets","type":"uint256","internalType":"uint256"}],"outputs":[],"stateMutability":"nonpayable"},{"type":"function","name":"isAllowed","inputs":[{"name":"user","type":"address","internalType":"address"}],"outputs":[{"name":"","type":"bool","internalType":"bool"}],"stateMutability":"view"},{"type":"function","name":"maxDeposit","inputs":[{"name":"","type":"address","internalType":"address"}],"outputs":[{"name":"","type":"uint256","internalType":"uint256"}],"stateMutability":"view"},{"type":"function","name":"maxMint","inputs":[{"name":"","type":"address","internalType":"address"}],"outputs":[{"name":"","type":"uint256","internalType":"uint256"}],"stateMutability":"view"},{"type":"function","name":"maxRedeem","inputs":[{"name":"owner","type":"address","internalType":"address"}],"outputs":[{"name":"","type":"uint256","internalType":"uint256"}],"stateMutability":"view"},{"type":"function","name":"maxWithdraw","inputs":[{"name":"owner","type":"address","internalType":"address"}],"outputs":[{"name":"","type":"uint256","internalType":"uint256"}],"stateMutability":"view"},{"type":"function","name":"minDeposit","inputs":[],"outputs":[{"name":"","type":"uint256","internalType":"uint256"}],"stateMutability":"view"},{"type":"function","name":"mint","inputs":[{"name":"shares","type":"uint256","internalType":"uint256"},{"name":"receiver","type":"address","internalType":"address"}],"outputs":[{"name":"assets","type":"uint256","internalType":"uint256"}],"stateMutability":"nonpayable"},{"type":"function","name":"name","inputs":[],"outputs":[{"name":"","type":"string","internalType":"string"}],"stateMutability":"view"},{"type":"function","name":"owner","inputs":[],"outputs":[{"name":"","type":"address","internalType":"address"}],"stateMutability":"view"},{"type":"function","name":"pause","inputs":[],"outputs":[],"stateMutability":"nonpayable"},{"type":"function","name":"paused","inputs":[],"outputs":[{"name":"","type":"bool","internalType":"bool"}],"stateMutability":"view"},{"type":"function","name":"permit2","inputs":[],"outputs":[{"name":"","type":"address","internalType":"contract IPermit2"}],"stateMutability":"view"},{"type":"function","name":"previewDeposit","inputs":[{"name":"assets","type":"uint256","internalType":"uint256"}],"outputs":[{"name":"","type":"uint256","internalType":"uint256"}],"stateMutability":"view"},{"type":"function","name":"previewMint","inputs":[{"name":"shares","type":"uint256","internalType":"uint256"}],"outputs":[{"name":"","type":"uint256","internalType":"uint256"}],"stateMutability":"view"},{"type":"function","name":"previewRedeem","inputs":[{"name":"shares","type":"uint256","internalType":"uint256"}],"outputs":[{"name":"","type":"uint256","internalType":"uint256"}],"stateMutability":"view"},{"type":"function","name":"previewWithdraw","inputs":[{"name":"assets","type":"uint256","internalType":"uint256"}],"outputs":[{"name":"","type":"uint256","internalType":"uint256"}],"stateMutability":"view"},{"type":"function","name":"redeem","inputs":[{"name":"shares","type":"uint256","internalType":"uint256"},{"name":"receiver","type":"address","internalType":"address"},{"name":"owner","type":"address","internalType":"address"}],"outputs":[{"name":"","type":"uint256","internalType":"uint256"}],"stateMutability":"nonpayable"},{"type":"function","name":"relayerFee","inputs":[],"outputs":[{"name":"","type":"uint256","internalType":"uint256"}],"stateMutability":"view"},{"type":"function","name":"renounceOwnership","inputs":[],"outputs":[],"stateMutability":"nonpayable"},{"type":"function","name":"setAllowlist","inputs":[{"name":"user","type":"address","internalType":"address"},{"name":"allowed","type":"bool","internalType":"bool"}],"outputs":[],"stateMutability":"nonpayable"},{"type":"function","name":"setDepositCap","inputs":[{"name":"cap","type":"uint256","internalType":"uint256"}],"outputs":[],"stateMutability":"nonpayable"},{"type":"function","name":"setERC7702Relayer","inputs":[{"name":"_relayer","type":"address","internalType":"address"}],"outputs":[],"stateMutability":"nonpayable"},{"type":"function","name":"setMinDeposit","inputs":[{"name":"min","type":"uint256","internalType":"uint256"}],"outputs":[],"stateMutability":"nonpayable"},{"type":"function","name":"setRelayerAuthorization","inputs":[{"name":"relayer","type":"address","internalType":"address"},{"name":"authorized","type":"bool","internalType":"bool"}],"outputs":[],"stateMutability":"nonpayable"},{"type":"function","name":"setRelayerFee","inputs":[{"name":"fee","type":"uint256","internalType":"uint256"}],"outputs":[],"stateMutability":"nonpayable"},{"type":"function","name":"setStrategy","inputs":[{"name":"_strategy","type":"address","internalType":"address"}],"outputs":[],"stateMutability":"nonpayable"},{"type":"function","name":"strategy","inputs":[],"outputs":[{"name":"","type":"address","internalType":"contract IStrategy"}],"stateMutability":"view"},{"type":"function","name":"symbol","inputs":[],"outputs":[{"name":"","type":"string","internalType":"string"}],"stateMutability":"view"},{"type":"function","name":"totalAssets","inputs":[],"outputs":[{"name":"","type":"uint256","internalType":"uint256"}],"stateMutability":"view"},{"type":"function","name":"totalSupply","inputs":[],"outputs":[{"name":"","type":"uint256","internalType":"uint256"}],"stateMutability":"view"},{"type":"function","name":"transfer","inputs":[{"name":"to","type":"address","internalType":"address"},{"name":"value","type":"uint256","internalType":"uint256"}],"outputs":[{"name":"","type":"bool","internalType":"bool"}],"stateMutability":"nonpayable"},{"type":"function","name":"transferFrom","inputs":[{"name":"from","type":"address","internalType":"address"},{"name":"to","type":"address","internalType":"address"},{"name":"value","type":"uint256","internalType":"uint256"}],"outputs":[{"name":"","type":"bool","internalType":"bool"}],"stateMutability":"nonpayable"},{"type":"function","name":"transferOwnership","inputs":[{"name":"newOwner","type":"address","internalType":"address"}],"outputs":[],"stateMutability":"nonpayable"},{"type":"function","name":"unpause","inputs":[],"outputs":[],"stateMutability":"nonpayable"},{"type":"function","name":"withdraw","inputs":[{"name":"assets","type":"uint256","internalType":"uint256"},{"name":"receiver","type":"address","internalType":"address"},{"name":"owner","type":"address","internalType":"address"}],"outputs":[{"name":"","type":"uint256","internalType":"uint256"}],"stateMutability":"nonpayable"},{"type":"function","name":"withdrawWithERC7702","inputs":[{"name":"shares","type":"uint256","internalType":"uint256"},{"name":"receiver","type":"address","internalType":"address"},{"name":"owner","type":"address","internalType":"address"},{"name":"gasPayment","type":"tuple","internalType":"struct IERC7702.GasPayment","components":[{"name":"user","type":"address","internalType":"address"},{"name":"token","type":"address","internalType":"address"},{"name":"amount","type":"uint256","internalType":"uint256"},{"name":"deadline","type":"uint256","internalType":"uint256"},{"name":"signature","type":"bytes","internalType":"bytes"}]}],"outputs":[{"name":"assets","type":"uint256","internalType":"uint256"}],"stateMutability":"nonpayable"},{"type":"event","name":"AllowlistUpdated","inputs":[{"name":"user","type":"address","indexed":true,"internalType":"address"},{"name":"allowed","type":"bool","indexed":false,"internalType":"bool"}],"anonymous":false},{"type":"event","name":"Approval","inputs":[{"name":"owner","type":"address","indexed":true,"internalType":"address"},{"name":"spender","type":"address","indexed":true,"internalType":"address"},{"name":"value","type":"uint256","indexed":false,"internalType":"uint256"}],"anonymous":false},{"type":"event","name":"Deposit","inputs":[{"name":"sender","type":"address","indexed":true,"internalType":"address"},{"name":"owner","type":"address","indexed":true,"internalType":"address"},{"name":"assets","type":"uint256","indexed":false,"internalType":"uint256"},{"name":"shares","type":"uint256","indexed":false,"internalType":"uint256"}],"anonymous":false},{"type":"event","name":"DepositCapSet","inputs":[{"name":"cap","type":"uint256","indexed":false,"internalType":"uint256"}],"anonymous":false},{"type":"event","name":"Divested","inputs":[{"name":"strategy","type":"address","indexed":true,"internalType":"address"},{"name":"assets","type":"uint256","indexed":false,"internalType":"uint256"}],"anonymous":false},{"type":"event","name":"ERC7702RelayerSet","inputs":[{"name":"relayer","type":"address","indexed":true,"internalType":"address"}],"anonymous":false},{"type":"event","name":"GaslessDeposit","inputs":[{"name":"owner","type":"address","indexed":true,"internalType":"address"},{"name":"receiver","type":"address","indexed":true,"internalType":"address"},{"name":"assets","type":"uint256","indexed":false,"internalType":"uint256"},{"name":"shares","type":"uint256","indexed":false,"internalType":"uint256"},{"name":"relayer","type":"address","indexed":true,"internalType":"address"}],"anonymous":false},{"type":"event","name":"Harvested","inputs":[{"name":"strategy","type":"address","indexed":true,"internalType":"address"},{"name":"yieldAssets","type":"uint256","indexed":false,"internalType":"uint256"}],"anonymous":false},{"type":"event","name":"Initialized","inputs":[{"name":"version","type":"uint64","indexed":false,"internalType":"uint64"}],"anonymous":false},{"type":"event","name":"Invested","inputs":[{"name":"strategy","type":"address","indexed":true,"internalType":"address"},{"name":"assets","type":"uint256","indexed":false,"internalType":"uint256"}],"anonymous":false},{"type":"event","name":"MinDepositSet","inputs":[{"name":"minDeposit","type":"uint256","indexed":false,"internalType":"uint256"}],"anonymous":false},{"type":"event","name":"OwnershipTransferred","inputs":[{"name":"previousOwner","type":"address","indexed":true,"internalType":"address"},{"name":"newOwner","type":"address","indexed":true,"internalType":"address"}],"anonymous":false},{"type":"event","name":"Paused","inputs":[{"name":"account","type":"address","indexed":false,"internalType":"address"}],"anonymous":false},{"type":"event","name":"RelayerAuthorized","inputs":[{"name":"relayer","type":"address","indexed":true,"internalType":"address"},{"name":"authorized","type":"bool","indexed":false,"internalType":"bool"}],"anonymous":false},{"type":"event","name":"RelayerFeeSet","inputs":[{"name":"fee","type":"uint256","indexed":false,"internalType":"uint256"}],"anonymous":false},{"type":"event","name":"StrategySet","inputs":[{"name":"strategy","type":"address","indexed":true,"internalType":"address"}],"anonymous":false},{"type":"event","name":"Transfer","inputs":[{"name":"from","type":"address","indexed":true,"internalType":"address"},{"name":"to","type":"address","indexed":true,"internalType":"address"},{"name":"value","type":"uint256","indexed":false,"internalType":"uint256"}],"anonymous":false},{"type":"event","name":"Unpaused","inputs":[{"name":"account","type":"address","indexed":false,"internalType":"address"}],"anonymous":false},{"type":"event","name":"Withdraw","inputs":[{"name":"sender","type":"address","indexed":true,"internalType":"address"},{"name":"receiver","type":"address","indexed":true,"internalType":"address"},{"name":"owner","type":"address","indexed":true,"internalType":"address"},{"name":"assets","type":"uint256","indexed":false,"internalType":"uint256"},{"name":"shares","type":"uint256","indexed":false,"internalType":"uint256"}],"anonymous":false},{"type":"error","name":"DepositCapExceeded","inputs":[]},{"type":"error","name":"ERC20InsufficientAllowance","inputs":[{"name":"spender","type":"address","internalType":"address"},{"name":"allowance","type":"uint256","internalType":"uint256"},{"name":"needed","type":"uint256","internalType":"uint256"}]},{"type":"error","name":"ERC20InsufficientBalance","inputs":[{"name":"sender","type":"address","internalType":"address"},{"name":"balance","type":"uint256","internalType":"uint256"},{"name":"needed","type":"uint256","internalType":"uint256"}]},{"type":"error","name":"ERC20InvalidApprover","inputs":[{"name":"approver","type":"address","internalType":"address"}]},{"type":"error","name":"ERC20InvalidReceiver","inputs":[{"name":"receiver","type":"address","internalType":"address"}]},{"type":"error","name":"ERC20InvalidSender","inputs":[{"name":"sender","type":"address","internalType":"address"}]},{"type":"error","name":"ERC20InvalidSpender","inputs":[{"name":"spender","type":"address","internalType":"address"}]},{"type":"error","name":"ERC4626ExceededMaxDeposit","inputs":[{"name":"receiver","type":"address","internalType":"address"},{"name":"assets","type":"uint256","internalType":"uint256"},{"name":"max","type":"uint256","internalType":"uint256"}]},{"type":"error","name":"ERC4626ExceededMaxMint","inputs":[{"name":"receiver","type":"address","internalType":"address"},{"name":"shares","type":"uint256","internalType":"uint256"},{"name":"max","type":"uint256","internalType":"uint256"}]},{"type":"error","name":"ERC4626ExceededMaxRedeem","inputs":[{"name":"owner","type":"address","internalType":"address"},{"name":"shares","type":"uint256","internalType":"uint256"},{"name":"max","type":"uint256","internalType":"uint256"}]},{"type":"error","name":"ERC4626ExceededMaxWithdraw","inputs":[{"name":"owner","type":"address","internalType":"address"},{"name":"assets","type":"uint256","internalType":"uint256"},{"name":"max","type":"uint256","internalType":"uint256"}]},{"type":"error","name":"EnforcedPause","inputs":[]},{"type":"error","name":"ExpectedPause","inputs":[]},{"type":"error","name":"InvalidERC7702Relayer","inputs":[]},{"type":"error","name":"InvalidInitialization","inputs":[]},{"type":"error","name":"MinDepositNotMet","inputs":[]},{"type":"error","name":"NotAllowed","inputs":[]},{"type":"error","name":"NotAuthorizedRelayer","inputs":[]},{"type":"error","name":"NotInitializing","inputs":[]},{"type":"error","name":"OwnableInvalidOwner","inputs":[{"name":"owner","type":"address","internalType":"address"}]},{"type":"error","name":"OwnableUnauthorizedAccount","inputs":[{"name":"account","type":"address","internalType":"address"}]},{"type":"error","name":"ReentrancyGuardReentrantCall","inputs":[]},{"type":"error","name":"SafeERC20FailedOperation","inputs":[{"name":"token","type":"address","internalType":"address"}]}],"bytecode":{"object":"0x608060405234801561000f575f5ffd5b5061001e61002360201b60201c565b610183565b5f61003261012160201b60201c565b9050805f0160089054906101000a900460ff161561007c576040517ff92ee8a900000000000000000000000000000000000000000000000000000000815260040160405180910390fd5b67ffffffffffffffff8016815f015f9054906101000a900467ffffffffffffffff1667ffffffffffffffff161461011e5767ffffffffffffffff815f015f6101000a81548167ffffffffffffffff021916908367ffffffffffffffff1602179055507fc7f505b2f371ae2175ee4913f4499e1f2633a7b5936321eed1cdaeb6115181d267ffffffffffffffff604051610115919061016a565b60405180910390a15b50565b5f7ff0c57e16840df040f15088dc2f81fe391c3923bec73e23a9662efc9c229c6a00905090565b5f67ffffffffffffffff82169050919050565b61016481610148565b82525050565b5f60208201905061017d5f83018461015b565b92915050565b615f4c806101905f395ff3fe608060405234801561000f575f5ffd5b5060043610610376575f3560e01c806384d29ee0116101d1578063b6c706e911610102578063d905777e116100a0578063ddc632621161007a578063ddc6326214610b04578063ef8b30f714610b20578063f0f11daa14610b50578063f2fde38b14610b6e57610376565b8063d905777e14610a86578063dbd5edc714610ab6578063dd62ed3e14610ad457610376565b8063c591ae39116100dc578063c591ae39146109da578063c63d75b6146109f6578063c6e6f59214610a26578063ce96cb7714610a5657610376565b8063b6c706e91461094a578063ba0876521461097a578063babcc539146109aa57610376565b806395d89b411161016f578063a9059cbb11610149578063a9059cbb1461089e578063b12527f8146108ce578063b3d7f6b9146108ea578063b460af941461091a57610376565b806395d89b4114610832578063a7cd52cb14610850578063a8c62e761461088057610376565b80638da5cb5b116101ab5780638da5cb5b146107aa5780638fcc9cfb146107c857806394bf804d146107e457806394c8e4ff1461081457610376565b806384d29ee01461074257806386651203146107725780638ca179951461078e57610376565b806338d52e0f116102ab5780635c975abb1161024957806370a082311161022357806370a08231146106e2578063715018a61461071257806383302a6f1461071c5780638456cb591461073857610376565b80635c975abb14610664578063661590d6146106825780636e553f65146106b257610376565b806341b3d1851161028557806341b3d185146105de57806346a9d08c146105fc5780634781bfed146106185780634cdad5061461063457610376565b806338d52e0f146105865780633f4ba83a146105a4578063402d267d146105ae57610376565b806323b872dd116103185780632ee30fff116102f25780632ee30fff146104fe5780632fdeb1111461052e578063313ce5671461054c57806333a100ca1461056a57610376565b806323b872dd1461048257806329e295c5146104b25780632afcf480146104e257610376565b8063095ea7b311610354578063095ea7b3146103e65780630a28a4771461041657806312261ee71461044657806318160ddd1461046457610376565b806301e1d1141461037a57806306fdde031461039857806307a2d13a146103b6575b5f5ffd5b610382610b8a565b60405161038f91906145ef565b60405180910390f35b6103a0610d0c565b6040516103ad9190614678565b60405180910390f35b6103d060048036038101906103cb91906146d3565b610daa565b6040516103dd91906145ef565b60405180910390f35b61040060048036038101906103fb9190614758565b610dbc565b60405161040d91906147b0565b60405180910390f35b610430600480360381019061042b91906146d3565b610dde565b60405161043d91906145ef565b60405180910390f35b61044e610df1565b60405161045b9190614824565b60405180910390f35b61046c610e15565b60405161047991906145ef565b60405180910390f35b61049c6004803603810190610497919061483d565b610e2c565b6040516104a991906147b0565b60405180910390f35b6104cc60048036038101906104c7919061488d565b610e5a565b6040516104d991906147b0565b60405180910390f35b6104fc60048036038101906104f791906146d3565b610e77565b005b610518600480360381019061051391906148f8565b6110f5565b60405161052591906145ef565b60405180910390f35b6105366115b3565b60405161054391906145ef565b60405180910390f35b6105546115b9565b604051610561919061498c565b60405180910390f35b610584600480360381019061057f919061488d565b6115ee565b005b61058e61177e565b60405161059b91906149b4565b60405180910390f35b6105ac6117b3565b005b6105c860048036038101906105c3919061488d565b6117c5565b6040516105d591906145ef565b60405180910390f35b6105e66117ee565b6040516105f391906145ef565b60405180910390f35b610616600480360381019061061191906149f7565b6117f4565b005b610632600480360381019061062d919061488d565b6118a2565b005b61064e600480360381019061064991906146d3565b611995565b60405161065b91906145ef565b60405180910390f35b61066c6119a7565b60405161067991906147b0565b60405180910390f35b61069c60048036038101906106979190614a53565b6119c9565b6040516106a991906145ef565b60405180910390f35b6106cc60048036038101906106c79190614abf565b611bc1565b6040516106d991906145ef565b60405180910390f35b6106fc60048036038101906106f7919061488d565b611c80565b60405161070991906145ef565b60405180910390f35b61071a611cd3565b005b610736600480360381019061073191906146d3565b611ce6565b005b610740611d74565b005b61075c60048036038101906107579190614afd565b611d86565b60405161076991906145ef565b60405180910390f35b61078c600480360381019061078791906146d3565b61216e565b005b6107a860048036038101906107a391906146d3565b6121b7565b005b6107b2612391565b6040516107bf91906149b4565b60405180910390f35b6107e260048036038101906107dd91906146d3565b6123c6565b005b6107fe60048036038101906107f99190614abf565b61240f565b60405161080b91906145ef565b60405180910390f35b61081c6124d9565b60405161082991906147b0565b60405180910390f35b61083a6124eb565b6040516108479190614678565b60405180910390f35b61086a6004803603810190610865919061488d565b612589565b60405161087791906147b0565b60405180910390f35b6108886125a6565b6040516108959190614b83565b60405180910390f35b6108b860048036038101906108b39190614758565b6125cb565b6040516108c591906147b0565b60405180910390f35b6108e860048036038101906108e391906149f7565b6125ed565b005b61090460048036038101906108ff91906146d3565b61269b565b60405161091191906145ef565b60405180910390f35b610934600480360381019061092f9190614b9c565b6126ae565b60405161094191906145ef565b60405180910390f35b610964600480360381019061095f9190614bec565b612730565b60405161097191906145ef565b60405180910390f35b610994600480360381019061098f9190614b9c565b61297d565b6040516109a191906145ef565b60405180910390f35b6109c460048036038101906109bf919061488d565b6129ff565b6040516109d191906147b0565b60405180910390f35b6109f460048036038101906109ef9190614dd3565b612a68565b005b610a106004803603810190610a0b919061488d565b612e27565b604051610a1d91906145ef565b60405180910390f35b610a406004803603810190610a3b91906146d3565b612e50565b604051610a4d91906145ef565b60405180910390f35b610a706004803603810190610a6b919061488d565b612e62565b604051610a7d91906145ef565b60405180910390f35b610aa06004803603810190610a9b919061488d565b612e7c565b604051610aad91906145ef565b60405180910390f35b610abe612e8d565b604051610acb91906145ef565b60405180910390f35b610aee6004803603810190610ae99190614ebc565b612e93565b604051610afb91906145ef565b60405180910390f35b610b1e6004803603810190610b1991906146d3565b612f23565b005b610b3a6004803603810190610b3591906146d3565b612fa5565b604051610b4791906145ef565b60405180910390f35b610b58612fb7565b604051610b659190614f1a565b60405180910390f35b610b886004803603810190610b83919061488d565b612fdc565b005b5f5f610b9461177e565b73ffffffffffffffffffffffffffffffffffffffff166370a08231306040518263ffffffff1660e01b8152600401610bcc91906149b4565b602060405180830381865afa158015610be7573d5f5f3e3d5ffd5b505050506040513d601f19601f82011682018060405250810190610c0b9190614f47565b90505f5f73ffffffffffffffffffffffffffffffffffffffff1660085f9054906101000a900473ffffffffffffffffffffffffffffffffffffffff1673ffffffffffffffffffffffffffffffffffffffff1614610cf55760085f9054906101000a900473ffffffffffffffffffffffffffffffffffffffff1673ffffffffffffffffffffffffffffffffffffffff166301e1d1146040518163ffffffff1660e01b8152600401602060405180830381865afa158015610ccc573d5f5f3e3d5ffd5b505050506040513d601f19601f82011682018060405250810190610cf09190614f47565b610cf7565b5f5b90508082610d059190614f9f565b9250505090565b60605f610d17613060565b9050806003018054610d2890614fff565b80601f0160208091040260200160405190810160405280929190818152602001828054610d5490614fff565b8015610d9f5780601f10610d7657610100808354040283529160200191610d9f565b820191905f5260205f20905b815481529060010190602001808311610d8257829003601f168201915b505050505091505090565b5f610db5825f613087565b9050919050565b5f5f610dc66130df565b9050610dd38185856130e6565b600191505092915050565b5f610dea8260016130f8565b9050919050565b5f5f9054906101000a900473ffffffffffffffffffffffffffffffffffffffff1681565b5f5f610e1f613060565b9050806002015491505090565b5f5f610e366130df565b9050610e43858285613150565b610e4e8585856131e2565b60019150509392505050565b6006602052805f5260405f205f915054906101000a900460ff1681565b610e7f6132d2565b610e87613359565b5f73ffffffffffffffffffffffffffffffffffffffff1660085f9054906101000a900473ffffffffffffffffffffffffffffffffffffffff1673ffffffffffffffffffffffffffffffffffffffff1603610f16576040517f08c379a0000000000000000000000000000000000000000000000000000000008152600401610f0d90615079565b60405180910390fd5b5f8111610f58576040517f08c379a0000000000000000000000000000000000000000000000000000000008152600401610f4f906150e1565b60405180910390fd5b610f6061177e565b73ffffffffffffffffffffffffffffffffffffffff1663095ea7b360085f9054906101000a900473ffffffffffffffffffffffffffffffffffffffff16836040518363ffffffff1660e01b8152600401610fbb9291906150ff565b6020604051808303815f875af1158015610fd7573d5f5f3e3d5ffd5b505050506040513d601f19601f82011682018060405250810190610ffb919061513a565b5060085f9054906101000a900473ffffffffffffffffffffffffffffffffffffffff1673ffffffffffffffffffffffffffffffffffffffff1663b6b55f25826040518263ffffffff1660e01b815260040161105691906145ef565b5f604051808303815f87803b15801561106d575f5ffd5b505af115801561107f573d5f5f3e3d5ffd5b5050505060085f9054906101000a900473ffffffffffffffffffffffffffffffffffffffff1673ffffffffffffffffffffffffffffffffffffffff167fc3f75dfc78f6efac88ad5abb5e606276b903647d97b2a62a1ef89840a658bbc3826040516110ea91906145ef565b60405180910390a250565b5f6110fe61339a565b611106613359565b8360035f9054906101000a900460ff168015611169575060025f8273ffffffffffffffffffffffffffffffffffffffff1673ffffffffffffffffffffffffffffffffffffffff1681526020019081526020015f205f9054906101000a900460ff16155b156111a0576040517f3d693ada00000000000000000000000000000000000000000000000000000000815260040160405180910390fd5b60065f3373ffffffffffffffffffffffffffffffffffffffff1673ffffffffffffffffffffffffffffffffffffffff1681526020019081526020015f205f9054906101000a900460ff16611220576040517f17fb206600000000000000000000000000000000000000000000000000000000815260040160405180910390fd5b5f8611611262576040517f08c379a0000000000000000000000000000000000000000000000000000000008152600401611259906150e1565b60405180910390fd5b61126a61177e565b73ffffffffffffffffffffffffffffffffffffffff16845f016020810190611292919061488d565b73ffffffffffffffffffffffffffffffffffffffff16146112e8576040517f08c379a00000000000000000000000000000000000000000000000000000000081526004016112df906151af565b60405180910390fd5b3073ffffffffffffffffffffffffffffffffffffffff16846080016020810190611312919061488d565b73ffffffffffffffffffffffffffffffffffffffff1614611368576040517f08c379a000000000000000000000000000000000000000000000000000000000815260040161135f90615217565b60405180910390fd5b611371866133ee565b5f5f9054906101000a900473ffffffffffffffffffffffffffffffffffffffff1673ffffffffffffffffffffffffffffffffffffffff16639c8e823f8886866040518463ffffffff1660e01b81526004016113ce939291906154b1565b5f604051808303815f87803b1580156113e5575f5ffd5b505af11580156113f7573d5f5f3e3d5ffd5b505050505f5f9054906101000a900473ffffffffffffffffffffffffffffffffffffffff1673ffffffffffffffffffffffffffffffffffffffff166336c7851688308961144261177e565b6040518563ffffffff1660e01b815260040161146194939291906154f6565b5f604051808303815f87803b158015611478575f5ffd5b505af115801561148a573d5f5f3e3d5ffd5b5050505061149786612e50565b91505f82116114db576040517f08c379a00000000000000000000000000000000000000000000000000000000081526004016114d290615583565b60405180910390fd5b6114e58583613495565b5f6007541115611523575f6127106007548461150191906155a1565b61150b919061560f565b90505f811115611521576115208633836131e2565b5b505b3373ffffffffffffffffffffffffffffffffffffffff168573ffffffffffffffffffffffffffffffffffffffff168873ffffffffffffffffffffffffffffffffffffffff167f1eecfd53ad9dc3d19e53544b702f842c3a3b0ceb7fc02e6ab2e528c1348059ab898660405161159992919061563f565b60405180910390a4506115aa613514565b95945050505050565b60075481565b5f5f6115c361352b565b90506115cd613552565b815f0160149054906101000a900460ff166115e89190615666565b91505090565b6115f66132d2565b8060085f6101000a81548173ffffffffffffffffffffffffffffffffffffffff021916908373ffffffffffffffffffffffffffffffffffffffff16021790555061163e61177e565b73ffffffffffffffffffffffffffffffffffffffff1660085f9054906101000a900473ffffffffffffffffffffffffffffffffffffffff1673ffffffffffffffffffffffffffffffffffffffff166338d52e0f6040518163ffffffff1660e01b8152600401602060405180830381865afa1580156116be573d5f5f3e3d5ffd5b505050506040513d601f19601f820116820180604052508101906116e291906156ae565b73ffffffffffffffffffffffffffffffffffffffff1614611738576040517f08c379a000000000000000000000000000000000000000000000000000000000815260040161172f90615723565b60405180910390fd5b8073ffffffffffffffffffffffffffffffffffffffff167fe70d79dad95c835bdd87e9cf4665651c9e5abb3b756e4fd2bf45f29c95c3aa4060405160405180910390a250565b5f5f61178861352b565b9050805f015f9054906101000a900473ffffffffffffffffffffffffffffffffffffffff1691505090565b6117bb6132d2565b6117c3613559565b565b5f7fffffffffffffffffffffffffffffffffffffffffffffffffffffffffffffffff9050919050565b60055481565b6117fc6132d2565b8060065f8473ffffffffffffffffffffffffffffffffffffffff1673ffffffffffffffffffffffffffffffffffffffff1681526020019081526020015f205f6101000a81548160ff0219169083151502179055508173ffffffffffffffffffffffffffffffffffffffff167f5afe4db7a7f6fb62654cf58aa1c5b48bf792e80667fd0480625d1e5d527449378260405161189691906147b0565b60405180910390a25050565b6118aa6132d2565b5f73ffffffffffffffffffffffffffffffffffffffff168173ffffffffffffffffffffffffffffffffffffffff160361190f576040517ff4f95f5c00000000000000000000000000000000000000000000000000000000815260040160405180910390fd5b8060015f6101000a81548173ffffffffffffffffffffffffffffffffffffffff021916908373ffffffffffffffffffffffffffffffffffffffff1602179055508073ffffffffffffffffffffffffffffffffffffffff167fbd6d7493fbc99415d734061bb0c36bff75ee239c1a724f73b6362275e750d44f60405160405180910390a250565b5f6119a0825f613087565b9050919050565b5f5f6119b16135c7565b9050805f015f9054906101000a900460ff1691505090565b5f6119d261339a565b6119da613359565b8260035f9054906101000a900460ff168015611a3d575060025f8273ffffffffffffffffffffffffffffffffffffffff1673ffffffffffffffffffffffffffffffffffffffff1681526020019081526020015f205f9054906101000a900460ff16155b15611a74576040517f3d693ada00000000000000000000000000000000000000000000000000000000815260040160405180910390fd5b5f8511611ab6576040517f08c379a0000000000000000000000000000000000000000000000000000000008152600401611aad906150e1565b60405180910390fd5b611abf856133ee565b611af3333087611acd61177e565b73ffffffffffffffffffffffffffffffffffffffff166135ee909392919063ffffffff16565b611afc85612e50565b91505f8211611b40576040517f08c379a0000000000000000000000000000000000000000000000000000000008152600401611b3790615583565b60405180910390fd5b611b4a8483613495565b8373ffffffffffffffffffffffffffffffffffffffff163373ffffffffffffffffffffffffffffffffffffffff167fdcbc1c05240f31ff3ad067ef1ee35ce4997762752e3a095284754544f4c709d78785604051611ba992919061563f565b60405180910390a350611bba613514565b9392505050565b5f611bca613359565b8160035f9054906101000a900460ff168015611c2d575060025f8273ffffffffffffffffffffffffffffffffffffffff1673ffffffffffffffffffffffffffffffffffffffff1681526020019081526020015f205f9054906101000a900460ff16155b15611c64576040517f3d693ada00000000000000000000000000000000000000000000000000000000815260040160405180910390fd5b611c6d846133ee565b611c778484613670565b91505092915050565b5f5f611c8a613060565b9050805f015f8473ffffffffffffffffffffffffffffffffffffffff1673ffffffffffffffffffffffffffffffffffffffff1681526020019081526020015f2054915050919050565b611cdb6132d2565b611ce45f6136f0565b565b611cee6132d2565b6103e8811115611d33576040517f08c379a0000000000000000000000000000000000000000000000000000000008152600401611d2a9061578b565b60405180910390fd5b806007819055507f42fdbcbc8ba10933bbfcce88dc7cdce251b9a896b3304ba19744b7da06fd907981604051611d6991906145ef565b60405180910390a150565b611d7c6132d2565b611d846137c1565b565b5f611d8f61339a565b611d97613359565b8360035f9054906101000a900460ff168015611dfa575060025f8273ffffffffffffffffffffffffffffffffffffffff1673ffffffffffffffffffffffffffffffffffffffff1681526020019081526020015f205f9054906101000a900460ff16155b15611e31576040517f3d693ada00000000000000000000000000000000000000000000000000000000815260040160405180910390fd5b5f8611611e73576040517f08c379a0000000000000000000000000000000000000000000000000000000008152600401611e6a906150e1565b60405180910390fd5b611e7b61177e565b73ffffffffffffffffffffffffffffffffffffffff16845f016020810190611ea3919061488d565b73ffffffffffffffffffffffffffffffffffffffff1614611ef9576040517f08c379a0000000000000000000000000000000000000000000000000000000008152600401611ef0906151af565b60405180910390fd5b3073ffffffffffffffffffffffffffffffffffffffff16846080016020810190611f23919061488d565b73ffffffffffffffffffffffffffffffffffffffff1614611f79576040517f08c379a0000000000000000000000000000000000000000000000000000000008152600401611f7090615217565b60405180910390fd5b611f82866133ee565b5f5f9054906101000a900473ffffffffffffffffffffffffffffffffffffffff1673ffffffffffffffffffffffffffffffffffffffff16639c8e823f3386866040518463ffffffff1660e01b8152600401611fdf939291906154b1565b5f604051808303815f87803b158015611ff6575f5ffd5b505af1158015612008573d5f5f3e3d5ffd5b505050505f5f9054906101000a900473ffffffffffffffffffffffffffffffffffffffff1673ffffffffffffffffffffffffffffffffffffffff166336c7851633308961205361177e565b6040518563ffffffff1660e01b815260040161207294939291906154f6565b5f604051808303815f87803b158015612089575f5ffd5b505af115801561209b573d5f5f3e3d5ffd5b505050506120a886612e50565b91505f82116120ec576040517f08c379a00000000000000000000000000000000000000000000000000000000081526004016120e390615583565b60405180910390fd5b6120f68583613495565b8473ffffffffffffffffffffffffffffffffffffffff163373ffffffffffffffffffffffffffffffffffffffff167fdcbc1c05240f31ff3ad067ef1ee35ce4997762752e3a095284754544f4c709d7888560405161215592919061563f565b60405180910390a350612166613514565b949350505050565b6121766132d2565b806004819055507f50e5341d7a4ad030a1a03c7b2bccfa67438c0bdf5c398a3b1d7a64babfbf97fe816040516121ac91906145ef565b60405180910390a150565b6121bf6132d2565b6121c7613359565b5f73ffffffffffffffffffffffffffffffffffffffff1660085f9054906101000a900473ffffffffffffffffffffffffffffffffffffffff1673ffffffffffffffffffffffffffffffffffffffff1603612256576040517f08c379a000000000000000000000000000000000000000000000000000000000815260040161224d90615079565b60405180910390fd5b5f8111612298576040517f08c379a000000000000000000000000000000000000000000000000000000000815260040161228f906150e1565b60405180910390fd5b60085f9054906101000a900473ffffffffffffffffffffffffffffffffffffffff1673ffffffffffffffffffffffffffffffffffffffff16632e1a7d4d826040518263ffffffff1660e01b81526004016122f291906145ef565b5f604051808303815f87803b158015612309575f5ffd5b505af115801561231b573d5f5f3e3d5ffd5b5050505060085f9054906101000a900473ffffffffffffffffffffffffffffffffffffffff1673ffffffffffffffffffffffffffffffffffffffff167f2253aebe2fe8682635bbe60d9b78df72efaf785a596910a8ad66e8c6e37584fd8260405161238691906145ef565b60405180910390a250565b5f5f61239b613830565b9050805f015f9054906101000a900473ffffffffffffffffffffffffffffffffffffffff1691505090565b6123ce6132d2565b806005819055507fc50a7f0bdf88c216b2541b0bdea26f22305460e39ffc672ec1a7501732c5ba818160405161240491906145ef565b60405180910390a150565b5f612418613359565b8160035f9054906101000a900460ff16801561247b575060025f8273ffffffffffffffffffffffffffffffffffffffff1673ffffffffffffffffffffffffffffffffffffffff1681526020019081526020015f205f9054906101000a900460ff16155b156124b2576040517f3d693ada00000000000000000000000000000000000000000000000000000000815260040160405180910390fd5b6124bb84610daa565b91506124c6826133ee565b6124d08484613857565b91505092915050565b60035f9054906101000a900460ff1681565b60605f6124f6613060565b905080600401805461250790614fff565b80601f016020809104026020016040519081016040528092919081815260200182805461253390614fff565b801561257e5780601f106125555761010080835404028352916020019161257e565b820191905f5260205f20905b81548152906001019060200180831161256157829003601f168201915b505050505091505090565b6002602052805f5260405f205f915054906101000a900460ff1681565b60085f9054906101000a900473ffffffffffffffffffffffffffffffffffffffff1681565b5f5f6125d56130df565b90506125e28185856131e2565b600191505092915050565b6125f56132d2565b8060025f8473ffffffffffffffffffffffffffffffffffffffff1673ffffffffffffffffffffffffffffffffffffffff1681526020019081526020015f205f6101000a81548160ff0219169083151502179055508173ffffffffffffffffffffffffffffffffffffffff167f13518841ff4d3053cb7703afaa39b145c6331829b982d42f4d4fd7568b2e8e248260405161268f91906147b0565b60405180910390a25050565b5f6126a7826001613087565b9050919050565b5f5f6126b983612e62565b905080851115612704578285826040517ffe9cceec0000000000000000000000000000000000000000000000000000000081526004016126fb939291906157a9565b60405180910390fd5b5f61270e86610dde565b905061272461271b6130df565b868689856138d7565b80925050509392505050565b5f61273961339a565b612741613359565b5f8511612783576040517f08c379a000000000000000000000000000000000000000000000000000000000815260040161277a90615583565b60405180910390fd5b5f73ffffffffffffffffffffffffffffffffffffffff168473ffffffffffffffffffffffffffffffffffffffff16036127f1576040517f08c379a00000000000000000000000000000000000000000000000000000000081526004016127e890615828565b60405180910390fd5b3373ffffffffffffffffffffffffffffffffffffffff168373ffffffffffffffffffffffffffffffffffffffff1614612866575f61282f8433612e93565b90507fffffffffffffffffffffffffffffffffffffffffffffffffffffffffffffffff811461286457612863843388613150565b5b505b61287083866139de565b61287985610daa565b90505f81116128bd576040517f08c379a00000000000000000000000000000000000000000000000000000000081526004016128b490615890565b60405180910390fd5b6128ef84826128ca61177e565b73ffffffffffffffffffffffffffffffffffffffff16613a5d9092919063ffffffff16565b8273ffffffffffffffffffffffffffffffffffffffff168473ffffffffffffffffffffffffffffffffffffffff163373ffffffffffffffffffffffffffffffffffffffff167ffbde797d201c681b91056529119e0b02407c7bb96a4a2c75c01fc9667232c8db848960405161296592919061563f565b60405180910390a4612975613514565b949350505050565b5f5f61298883612e7c565b9050808511156129d3578285826040517fb94abeec0000000000000000000000000000000000000000000000000000000081526004016129ca939291906157a9565b60405180910390fd5b5f6129dd86611995565b90506129f36129ea6130df565b8686848a6138d7565b80925050509392505050565b5f60035f9054906101000a900460ff161580612a61575060025f8373ffffffffffffffffffffffffffffffffffffffff1673ffffffffffffffffffffffffffffffffffffffff1681526020019081526020015f205f9054906101000a900460ff165b9050919050565b5f612a71613adc565b90505f815f0160089054906101000a900460ff161590505f825f015f9054906101000a900467ffffffffffffffff1690505f5f8267ffffffffffffffff16148015612ab95750825b90505f60018367ffffffffffffffff16148015612aec57505f3073ffffffffffffffffffffffffffffffffffffffff163b145b905081158015612afa575080155b15612b31576040517ff92ee8a900000000000000000000000000000000000000000000000000000000815260040160405180910390fd5b6001855f015f6101000a81548167ffffffffffffffff021916908367ffffffffffffffff1602179055508315612b7e576001855f0160086101000a81548160ff0219169083151502179055505b5f73ffffffffffffffffffffffffffffffffffffffff168d73ffffffffffffffffffffffffffffffffffffffff1603612bec576040517f08c379a0000000000000000000000000000000000000000000000000000000008152600401612be3906158f8565b60405180910390fd5b5f73ffffffffffffffffffffffffffffffffffffffff168c73ffffffffffffffffffffffffffffffffffffffff1603612c5a576040517f08c379a0000000000000000000000000000000000000000000000000000000008152600401612c5190615960565b60405180910390fd5b5f73ffffffffffffffffffffffffffffffffffffffff168673ffffffffffffffffffffffffffffffffffffffff1603612cc8576040517f08c379a0000000000000000000000000000000000000000000000000000000008152600401612cbf906159c8565b60405180910390fd5b612cd18d613b03565b612cdb8b8b613b17565b612ce48c613b2d565b612cec613b41565b612cf4613b53565b855f5f6101000a81548173ffffffffffffffffffffffffffffffffffffffff021916908373ffffffffffffffffffffffffffffffffffffffff1602179055508860035f6101000a81548160ff0219169083151502179055508760048190555086600581905550600a6007819055508815612dbe57600160025f8e73ffffffffffffffffffffffffffffffffffffffff1673ffffffffffffffffffffffffffffffffffffffff1681526020019081526020015f205f6101000a81548160ff0219169083151502179055505b8315612e18575f855f0160086101000a81548160ff0219169083151502179055507fc7f505b2f371ae2175ee4913f4499e1f2633a7b5936321eed1cdaeb6115181d26001604051612e0f9190615a32565b60405180910390a15b50505050505050505050505050565b5f7fffffffffffffffffffffffffffffffffffffffffffffffffffffffffffffffff9050919050565b5f612e5b825f6130f8565b9050919050565b5f612e75612e6f83611c80565b5f613087565b9050919050565b5f612e8682611c80565b9050919050565b60045481565b5f5f612e9d613060565b9050806001015f8573ffffffffffffffffffffffffffffffffffffffff1673ffffffffffffffffffffffffffffffffffffffff1681526020019081526020015f205f8473ffffffffffffffffffffffffffffffffffffffff1673ffffffffffffffffffffffffffffffffffffffff1681526020019081526020015f205491505092915050565b612f2b6132d2565b612f33613359565b60085f9054906101000a900473ffffffffffffffffffffffffffffffffffffffff1673ffffffffffffffffffffffffffffffffffffffff167f121c5042302bae5fc561fbc64368f297ca60a880878e1e3a7f7e9380377260bf82604051612f9a91906145ef565b60405180910390a250565b5f612fb0825f6130f8565b9050919050565b60015f9054906101000a900473ffffffffffffffffffffffffffffffffffffffff1681565b612fe46132d2565b5f73ffffffffffffffffffffffffffffffffffffffff168173ffffffffffffffffffffffffffffffffffffffff1603613054575f6040517f1e4fbdf700000000000000000000000000000000000000000000000000000000815260040161304b91906149b4565b60405180910390fd5b61305d816136f0565b50565b5f7f52c63247e1f47db19d5ce0460030c497f067ca4cebf71ba98eeadabe20bace00905090565b5f6130d76001613095610b8a565b61309f9190614f9f565b6130a7613552565b600a6130b39190615b7a565b6130bb610e15565b6130c59190614f9f565b8486613b65909392919063ffffffff16565b905092915050565b5f33905090565b6130f38383836001613bb2565b505050565b5f613148613104613552565b600a6131109190615b7a565b613118610e15565b6131229190614f9f565b600161312c610b8a565b6131369190614f9f565b8486613b65909392919063ffffffff16565b905092915050565b5f61315b8484612e93565b90507fffffffffffffffffffffffffffffffffffffffffffffffffffffffffffffffff81146131dc57818110156131cd578281836040517ffb8f41b20000000000000000000000000000000000000000000000000000000081526004016131c4939291906157a9565b60405180910390fd5b6131db84848484035f613bb2565b5b50505050565b5f73ffffffffffffffffffffffffffffffffffffffff168373ffffffffffffffffffffffffffffffffffffffff1603613252575f6040517f96c6fd1e00000000000000000000000000000000000000000000000000000000815260040161324991906149b4565b60405180910390fd5b5f73ffffffffffffffffffffffffffffffffffffffff168273ffffffffffffffffffffffffffffffffffffffff16036132c2575f6040517fec442f050000000000000000000000000000000000000000000000000000000081526004016132b991906149b4565b60405180910390fd5b6132cd838383613d8f565b505050565b6132da6130df565b73ffffffffffffffffffffffffffffffffffffffff166132f8612391565b73ffffffffffffffffffffffffffffffffffffffff16146133575761331b6130df565b6040517f118cdaa700000000000000000000000000000000000000000000000000000000815260040161334e91906149b4565b60405180910390fd5b565b6133616119a7565b15613398576040517fd93c066500000000000000000000000000000000000000000000000000000000815260040160405180910390fd5b565b5f6133a3613fbe565b90506002815f0154036133e2576040517f3ee5aeb500000000000000000000000000000000000000000000000000000000815260040160405180910390fd5b6002815f018190555050565b5f600454118015613412575060045481613406610b8a565b6134109190614f9f565b115b15613449576040517f935d630c00000000000000000000000000000000000000000000000000000000815260040160405180910390fd5b5f60055411801561345b575060055481105b15613492576040517f0f423b1500000000000000000000000000000000000000000000000000000000815260040160405180910390fd5b50565b5f73ffffffffffffffffffffffffffffffffffffffff168273ffffffffffffffffffffffffffffffffffffffff1603613505575f6040517fec442f050000000000000000000000000000000000000000000000000000000081526004016134fc91906149b4565b60405180910390fd5b6135105f8383613d8f565b5050565b5f61351d613fbe565b90506001815f018190555050565b5f7f0773e532dfede91f04b12a73d3d2acd361424f41f76b4fb79f090161e36b4e00905090565b5f5f905090565b613561613fe5565b5f61356a6135c7565b90505f815f015f6101000a81548160ff0219169083151502179055507f5db9ee0a495bf2e6ff9c91a7834c1ba4fdd244a5e8aa4e537bd38aeae4b073aa6135af6130df565b6040516135bc91906149b4565b60405180910390a150565b5f7fcd5ed15c6e187e77e9aee88184c21f4f2182ab5827cb3b7e07fbedcd63f03300905090565b61366a848573ffffffffffffffffffffffffffffffffffffffff166323b872dd86868660405160240161362393929190615bc4565b604051602081830303815290604052915060e01b6020820180517bffffffffffffffffffffffffffffffffffffffffffffffffffffffff8381831617835250505050614025565b50505050565b5f5f61367b836117c5565b9050808411156136c6578284826040517f79012fb20000000000000000000000000000000000000000000000000000000081526004016136bd939291906157a9565b60405180910390fd5b5f6136d085612fa5565b90506136e56136dd6130df565b8587846140c0565b809250505092915050565b5f6136f9613830565b90505f815f015f9054906101000a900473ffffffffffffffffffffffffffffffffffffffff16905082825f015f6101000a81548173ffffffffffffffffffffffffffffffffffffffff021916908373ffffffffffffffffffffffffffffffffffffffff1602179055508273ffffffffffffffffffffffffffffffffffffffff168173ffffffffffffffffffffffffffffffffffffffff167f8be0079c531659141344cd1fd0a4f28419497f9722a3daafe3b4186f6b6457e060405160405180910390a3505050565b6137c9613359565b5f6137d26135c7565b90506001815f015f6101000a81548160ff0219169083151502179055507f62e78cea01bee320cd4e420270b5ea74000d11b0c9f74754ebdbfc544b05a2586138186130df565b60405161382591906149b4565b60405180910390a150565b5f7f9016d09d72d40fdae2fd8ceac6b6234c7706214fd39c1cd1e609a0528c199300905090565b5f5f61386283612e27565b9050808411156138ad578284826040517f284ff6670000000000000000000000000000000000000000000000000000000081526004016138a4939291906157a9565b60405180910390fd5b5f6138b78561269b565b90506138cc6138c46130df565b8583886140c0565b809250505092915050565b5f6138e061352b565b90508373ffffffffffffffffffffffffffffffffffffffff168673ffffffffffffffffffffffffffffffffffffffff161461392157613920848784613150565b5b61392b84836139de565b613958815f015f9054906101000a900473ffffffffffffffffffffffffffffffffffffffff168685613a5d565b8373ffffffffffffffffffffffffffffffffffffffff168573ffffffffffffffffffffffffffffffffffffffff168773ffffffffffffffffffffffffffffffffffffffff167ffbde797d201c681b91056529119e0b02407c7bb96a4a2c75c01fc9667232c8db86866040516139ce92919061563f565b60405180910390a4505050505050565b5f73ffffffffffffffffffffffffffffffffffffffff168273ffffffffffffffffffffffffffffffffffffffff1603613a4e575f6040517f96c6fd1e000000000000000000000000000000000000000000000000000000008152600401613a4591906149b4565b60405180910390fd5b613a59825f83613d8f565b5050565b613ad7838473ffffffffffffffffffffffffffffffffffffffff1663a9059cbb8585604051602401613a909291906150ff565b604051602081830303815290604052915060e01b6020820180517bffffffffffffffffffffffffffffffffffffffffffffffffffffffff8381831617835250505050614025565b505050565b5f7ff0c57e16840df040f15088dc2f81fe391c3923bec73e23a9662efc9c229c6a00905090565b613b0b614171565b613b14816141b1565b50565b613b1f614171565b613b298282614243565b5050565b613b35614171565b613b3e8161427f565b50565b613b49614171565b613b51614303565b565b613b5b614171565b613b63614333565b565b5f613b93613b7283614352565b8015613b8e57505f8480613b8957613b886155e2565b5b868809115b61437f565b613b9e86868661438a565b613ba89190614f9f565b9050949350505050565b5f613bbb613060565b90505f73ffffffffffffffffffffffffffffffffffffffff168573ffffffffffffffffffffffffffffffffffffffff1603613c2d575f6040517fe602df05000000000000000000000000000000000000000000000000000000008152600401613c2491906149b4565b60405180910390fd5b5f73ffffffffffffffffffffffffffffffffffffffff168473ffffffffffffffffffffffffffffffffffffffff1603613c9d575f6040517f94280d62000000000000000000000000000000000000000000000000000000008152600401613c9491906149b4565b60405180910390fd5b82816001015f8773ffffffffffffffffffffffffffffffffffffffff1673ffffffffffffffffffffffffffffffffffffffff1681526020019081526020015f205f8673ffffffffffffffffffffffffffffffffffffffff1673ffffffffffffffffffffffffffffffffffffffff1681526020019081526020015f20819055508115613d88578373ffffffffffffffffffffffffffffffffffffffff168573ffffffffffffffffffffffffffffffffffffffff167f8c5be1e5ebec7d5bd14f71427d1e84f3dd0314c0f7b2291e5b200ac8c7c3b92585604051613d7f91906145ef565b60405180910390a35b5050505050565b5f613d98613060565b90505f73ffffffffffffffffffffffffffffffffffffffff168473ffffffffffffffffffffffffffffffffffffffff1603613dec5781816002015f828254613de09190614f9f565b92505081905550613ebe565b5f815f015f8673ffffffffffffffffffffffffffffffffffffffff1673ffffffffffffffffffffffffffffffffffffffff1681526020019081526020015f2054905082811015613e77578481846040517fe450d38c000000000000000000000000000000000000000000000000000000008152600401613e6e939291906157a9565b60405180910390fd5b828103825f015f8773ffffffffffffffffffffffffffffffffffffffff1673ffffffffffffffffffffffffffffffffffffffff1681526020019081526020015f2081905550505b5f73ffffffffffffffffffffffffffffffffffffffff168373ffffffffffffffffffffffffffffffffffffffff1603613f075781816002015f8282540392505081905550613f53565b81815f015f8573ffffffffffffffffffffffffffffffffffffffff1673ffffffffffffffffffffffffffffffffffffffff1681526020019081526020015f205f82825401925050819055505b8273ffffffffffffffffffffffffffffffffffffffff168473ffffffffffffffffffffffffffffffffffffffff167fddf252ad1be2c89b69c2b068fc378daa952ba7f163c4a11628f55a4df523b3ef84604051613fb091906145ef565b60405180910390a350505050565b5f7f9b779b17422d0df92223018b32b4d1fa46e071723d6817e2486d003becc55f00905090565b613fed6119a7565b614023576040517f8dfc202b00000000000000000000000000000000000000000000000000000000815260040160405180910390fd5b565b5f5f60205f8451602086015f885af180614044576040513d5f823e3d81fd5b3d92505f519150505f821461405d576001811415614078565b5f8473ffffffffffffffffffffffffffffffffffffffff163b145b156140ba57836040517f5274afe70000000000000000000000000000000000000000000000000000000081526004016140b191906149b4565b60405180910390fd5b50505050565b5f6140c961352b565b90506140f9815f015f9054906101000a900473ffffffffffffffffffffffffffffffffffffffff168630866135ee565b6141038483613495565b8373ffffffffffffffffffffffffffffffffffffffff168573ffffffffffffffffffffffffffffffffffffffff167fdcbc1c05240f31ff3ad067ef1ee35ce4997762752e3a095284754544f4c709d7858560405161416292919061563f565b60405180910390a35050505050565b614179614469565b6141af576040517fd7e6bcf800000000000000000000000000000000000000000000000000000000815260040160405180910390fd5b565b6141b9614171565b5f6141c261352b565b90505f5f6141cf84614487565b91509150816141df5760126141e1565b805b835f0160146101000a81548160ff021916908360ff16021790555083835f015f6101000a81548173ffffffffffffffffffffffffffffffffffffffff021916908373ffffffffffffffffffffffffffffffffffffffff16021790555050505050565b61424b614171565b5f614254613060565b9050828160030190816142679190615d90565b50818160040190816142799190615d90565b50505050565b614287614171565b5f73ffffffffffffffffffffffffffffffffffffffff168173ffffffffffffffffffffffffffffffffffffffff16036142f7575f6040517f1e4fbdf70000000000000000000000000000000000000000000000000000000081526004016142ee91906149b4565b60405180910390fd5b614300816136f0565b50565b61430b614171565b5f6143146135c7565b90505f815f015f6101000a81548160ff02191690831515021790555050565b61433b614171565b5f614344613fbe565b90506001815f018190555050565b5f6001600283600381111561436a57614369615e5f565b5b6143749190615e8c565b60ff16149050919050565b5f8115159050919050565b5f5f5f6143978686614590565b915091505f82036143bc578381816143b2576143b16155e2565b5b0492505050614462565b8184116143db576143da6143d55f8614601260116145ad565b6145c6565b5b5f8486880990508181118303925080820391505f855f038616905080860495508083049250600181825f0304019050808402831792505f600287600302189050808702600203810290508087026002038102905080870260020381029050808702600203810290508087026002038102905080870260020381029050808402955050505050505b9392505050565b5f614472613adc565b5f0160089054906101000a900460ff16905090565b5f5f5f5f8473ffffffffffffffffffffffffffffffffffffffff1660405160240160405160208183030381529060405263313ce56760e01b6020820180517bffffffffffffffffffffffffffffffffffffffffffffffffffffffff83818316178352505050506040516144fa9190615f00565b5f60405180830381855afa9150503d805f8114614532576040519150601f19603f3d011682016040523d82523d5f602084013e614537565b606091505b509150915081801561454b57506020815110155b15614582575f818060200190518101906145659190614f47565b905060ff80168111614580576001819450945050505061458b565b505b5f5f9350935050505b915091565b5f5f5f198385098385029150818110828203039250509250929050565b5f6145b78461437f565b82841802821890509392505050565b634e487b715f52806020526024601cfd5b5f819050919050565b6145e9816145d7565b82525050565b5f6020820190506146025f8301846145e0565b92915050565b5f81519050919050565b5f82825260208201905092915050565b8281835e5f83830152505050565b5f601f19601f8301169050919050565b5f61464a82614608565b6146548185614612565b9350614664818560208601614622565b61466d81614630565b840191505092915050565b5f6020820190508181035f8301526146908184614640565b905092915050565b5f604051905090565b5f5ffd5b5f5ffd5b6146b2816145d7565b81146146bc575f5ffd5b50565b5f813590506146cd816146a9565b92915050565b5f602082840312156146e8576146e76146a1565b5b5f6146f5848285016146bf565b91505092915050565b5f73ffffffffffffffffffffffffffffffffffffffff82169050919050565b5f614727826146fe565b9050919050565b6147378161471d565b8114614741575f5ffd5b50565b5f813590506147528161472e565b92915050565b5f5f6040838503121561476e5761476d6146a1565b5b5f61477b85828601614744565b925050602061478c858286016146bf565b9150509250929050565b5f8115159050919050565b6147aa81614796565b82525050565b5f6020820190506147c35f8301846147a1565b92915050565b5f819050919050565b5f6147ec6147e76147e2846146fe565b6147c9565b6146fe565b9050919050565b5f6147fd826147d2565b9050919050565b5f61480e826147f3565b9050919050565b61481e81614804565b82525050565b5f6020820190506148375f830184614815565b92915050565b5f5f5f60608486031215614854576148536146a1565b5b5f61486186828701614744565b935050602061487286828701614744565b9250506040614883868287016146bf565b9150509250925092565b5f602082840312156148a2576148a16146a1565b5b5f6148af84828501614744565b91505092915050565b5f5ffd5b5f60c082840312156148d1576148d06148b8565b5b81905092915050565b5f606082840312156148ef576148ee6148b8565b5b81905092915050565b5f5f5f5f5f6101808688031215614912576149116146a1565b5b5f61491f88828901614744565b9550506020614930888289016146bf565b945050604061494188828901614744565b9350506060614952888289016148bc565b925050610120614964888289016148da565b9150509295509295909350565b5f60ff82169050919050565b61498681614971565b82525050565b5f60208201905061499f5f83018461497d565b92915050565b6149ae8161471d565b82525050565b5f6020820190506149c75f8301846149a5565b92915050565b6149d681614796565b81146149e0575f5ffd5b50565b5f813590506149f1816149cd565b92915050565b5f5f60408385031215614a0d57614a0c6146a1565b5b5f614a1a85828601614744565b9250506020614a2b858286016149e3565b9150509250929050565b5f60a08284031215614a4a57614a496148b8565b5b81905092915050565b5f5f5f60608486031215614a6a57614a696146a1565b5b5f614a77868287016146bf565b9350506020614a8886828701614744565b925050604084013567ffffffffffffffff811115614aa957614aa86146a5565b5b614ab586828701614a35565b9150509250925092565b5f5f60408385031215614ad557614ad46146a1565b5b5f614ae2858286016146bf565b9250506020614af385828601614744565b9150509250929050565b5f5f5f5f6101608587031215614b1657614b156146a1565b5b5f614b23878288016146bf565b9450506020614b3487828801614744565b9350506040614b45878288016148bc565b925050610100614b57878288016148da565b91505092959194509250565b5f614b6d826147f3565b9050919050565b614b7d81614b63565b82525050565b5f602082019050614b965f830184614b74565b92915050565b5f5f5f60608486031215614bb357614bb26146a1565b5b5f614bc0868287016146bf565b9350506020614bd186828701614744565b9250506040614be286828701614744565b9150509250925092565b5f5f5f5f60808587031215614c0457614c036146a1565b5b5f614c11878288016146bf565b9450506020614c2287828801614744565b9350506040614c3387828801614744565b925050606085013567ffffffffffffffff811115614c5457614c536146a5565b5b614c6087828801614a35565b91505092959194509250565b5f614c768261471d565b9050919050565b614c8681614c6c565b8114614c90575f5ffd5b50565b5f81359050614ca181614c7d565b92915050565b5f5ffd5b5f5ffd5b7f4e487b71000000000000000000000000000000000000000000000000000000005f52604160045260245ffd5b614ce582614630565b810181811067ffffffffffffffff82111715614d0457614d03614caf565b5b80604052505050565b5f614d16614698565b9050614d228282614cdc565b919050565b5f67ffffffffffffffff821115614d4157614d40614caf565b5b614d4a82614630565b9050602081019050919050565b828183375f83830152505050565b5f614d77614d7284614d27565b614d0d565b905082815260208101848484011115614d9357614d92614cab565b5b614d9e848285614d57565b509392505050565b5f82601f830112614dba57614db9614ca7565b5b8135614dca848260208601614d65565b91505092915050565b5f5f5f5f5f5f5f5f610100898b031215614df057614def6146a1565b5b5f614dfd8b828c01614c93565b9850506020614e0e8b828c01614744565b975050604089013567ffffffffffffffff811115614e2f57614e2e6146a5565b5b614e3b8b828c01614da6565b965050606089013567ffffffffffffffff811115614e5c57614e5b6146a5565b5b614e688b828c01614da6565b9550506080614e798b828c016149e3565b94505060a0614e8a8b828c016146bf565b93505060c0614e9b8b828c016146bf565b92505060e0614eac8b828c01614744565b9150509295985092959890939650565b5f5f60408385031215614ed257614ed16146a1565b5b5f614edf85828601614744565b9250506020614ef085828601614744565b9150509250929050565b5f614f04826147f3565b9050919050565b614f1481614efa565b82525050565b5f602082019050614f2d5f830184614f0b565b92915050565b5f81519050614f41816146a9565b92915050565b5f60208284031215614f5c57614f5b6146a1565b5b5f614f6984828501614f33565b91505092915050565b7f4e487b71000000000000000000000000000000000000000000000000000000005f52601160045260245ffd5b5f614fa9826145d7565b9150614fb4836145d7565b9250828201905080821115614fcc57614fcb614f72565b5b92915050565b7f4e487b71000000000000000000000000000000000000000000000000000000005f52602260045260245ffd5b5f600282049050600182168061501657607f821691505b60208210810361502957615028614fd2565b5b50919050565b7f4e6f2073747261746567790000000000000000000000000000000000000000005f82015250565b5f615063600b83614612565b915061506e8261502f565b602082019050919050565b5f6020820190508181035f83015261509081615057565b9050919050565b7f5a65726f000000000000000000000000000000000000000000000000000000005f82015250565b5f6150cb600483614612565b91506150d682615097565b602082019050919050565b5f6020820190508181035f8301526150f8816150bf565b9050919050565b5f6040820190506151125f8301856149a5565b61511f60208301846145e0565b9392505050565b5f81519050615134816149cd565b92915050565b5f6020828403121561514f5761514e6146a1565b5b5f61515c84828501615126565b91505092915050565b7f57726f6e6720746f6b656e0000000000000000000000000000000000000000005f82015250565b5f615199600b83614612565b91506151a482615165565b602082019050919050565b5f6020820190508181035f8301526151c68161518d565b9050919050565b7f5370656e646572213d7661756c740000000000000000000000000000000000005f82015250565b5f615201600e83614612565b915061520c826151cd565b602082019050919050565b5f6020820190508181035f83015261522e816151f5565b9050919050565b5f6152436020840184614744565b905092915050565b6152548161471d565b82525050565b615263816146fe565b811461526d575f5ffd5b50565b5f8135905061527e8161525a565b92915050565b5f6152926020840184615270565b905092915050565b6152a3816146fe565b82525050565b5f65ffffffffffff82169050919050565b6152c3816152a9565b81146152cd575f5ffd5b50565b5f813590506152de816152ba565b92915050565b5f6152f260208401846152d0565b905092915050565b615303816152a9565b82525050565b60c082016153195f830183615235565b6153255f85018261524b565b506153336020830183615284565b615340602085018261529a565b5061534e60408301836152e4565b61535b60408501826152fa565b5061536960608301836152e4565b61537660608501826152fa565b506153846080830183615235565b615391608085018261524b565b5061539f60a08301836152e4565b6153ac60a08501826152fa565b50505050565b6153bb81614971565b81146153c5575f5ffd5b50565b5f813590506153d6816153b2565b92915050565b5f6153ea60208401846153c8565b905092915050565b6153fb81614971565b82525050565b5f819050919050565b61541381615401565b811461541d575f5ffd5b50565b5f8135905061542e8161540a565b92915050565b5f6154426020840184615420565b905092915050565b61545381615401565b82525050565b606082016154695f8301836153dc565b6154755f8501826153f2565b506154836020830183615434565b615490602085018261544a565b5061549e6040830183615434565b6154ab604085018261544a565b50505050565b5f610140820190506154c55f8301866149a5565b6154d26020830185615309565b6154df60e0830184615459565b949350505050565b6154f0816146fe565b82525050565b5f6080820190506155095f8301876149a5565b61551660208301866149a5565b61552360408301856154e7565b61553060608301846149a5565b95945050505050565b7f5a65726f207368617265730000000000000000000000000000000000000000005f82015250565b5f61556d600b83614612565b915061557882615539565b602082019050919050565b5f6020820190508181035f83015261559a81615561565b9050919050565b5f6155ab826145d7565b91506155b6836145d7565b92508282026155c4816145d7565b915082820484148315176155db576155da614f72565b5b5092915050565b7f4e487b71000000000000000000000000000000000000000000000000000000005f52601260045260245ffd5b5f615619826145d7565b9150615624836145d7565b925082615634576156336155e2565b5b828204905092915050565b5f6040820190506156525f8301856145e0565b61565f60208301846145e0565b9392505050565b5f61567082614971565b915061567b83614971565b9250828201905060ff81111561569457615693614f72565b5b92915050565b5f815190506156a88161472e565b92915050565b5f602082840312156156c3576156c26146a1565b5b5f6156d08482850161569a565b91505092915050565b7f4d69736d617463686564206173736574000000000000000000000000000000005f82015250565b5f61570d601083614612565b9150615718826156d9565b602082019050919050565b5f6020820190508181035f83015261573a81615701565b9050919050565b7f46656520746f6f206869676800000000000000000000000000000000000000005f82015250565b5f615775600c83614612565b915061578082615741565b602082019050919050565b5f6020820190508181035f8301526157a281615769565b9050919050565b5f6060820190506157bc5f8301866149a5565b6157c960208301856145e0565b6157d660408301846145e0565b949350505050565b7f496e76616c6964207265636569766572000000000000000000000000000000005f82015250565b5f615812601083614612565b915061581d826157de565b602082019050919050565b5f6020820190508181035f83015261583f81615806565b9050919050565b7f5a65726f206173736574730000000000000000000000000000000000000000005f82015250565b5f61587a600b83614612565b915061588582615846565b602082019050919050565b5f6020820190508181035f8301526158a78161586e565b9050919050565b7f496e76616c6964206173736574000000000000000000000000000000000000005f82015250565b5f6158e2600d83614612565b91506158ed826158ae565b602082019050919050565b5f6020820190508181035f83015261590f816158d6565b9050919050565b7f496e76616c69642061646d696e000000000000000000000000000000000000005f82015250565b5f61594a600d83614612565b915061595582615916565b602082019050919050565b5f6020820190508181035f8301526159778161593e565b9050919050565b7f496e76616c6964207065726d69743200000000000000000000000000000000005f82015250565b5f6159b2600f83614612565b91506159bd8261597e565b602082019050919050565b5f6020820190508181035f8301526159df816159a6565b9050919050565b5f819050919050565b5f67ffffffffffffffff82169050919050565b5f615a1c615a17615a12846159e6565b6147c9565b6159ef565b9050919050565b615a2c81615a02565b82525050565b5f602082019050615a455f830184615a23565b92915050565b5f8160011c9050919050565b5f5f8291508390505b6001851115615aa057808604811115615a7c57615a7b614f72565b5b6001851615615a8b5780820291505b8081029050615a9985615a4b565b9450615a60565b94509492505050565b5f82615ab85760019050615b73565b81615ac5575f9050615b73565b8160018114615adb5760028114615ae557615b14565b6001915050615b73565b60ff841115615af757615af6614f72565b5b8360020a915084821115615b0e57615b0d614f72565b5b50615b73565b5060208310610133831016604e8410600b8410161715615b495782820a905083811115615b4457615b43614f72565b5b615b73565b615b568484846001615a57565b92509050818404811115615b6d57615b6c614f72565b5b81810290505b9392505050565b5f615b84826145d7565b9150615b8f83614971565b9250615bbc7fffffffffffffffffffffffffffffffffffffffffffffffffffffffffffffffff8484615aa9565b905092915050565b5f606082019050615bd75f8301866149a5565b615be460208301856149a5565b615bf160408301846145e0565b949350505050565b5f819050815f5260205f209050919050565b5f6020601f8301049050919050565b5f82821b905092915050565b5f60088302615c557fffffffffffffffffffffffffffffffffffffffffffffffffffffffffffffffff82615c1a565b615c5f8683615c1a565b95508019841693508086168417925050509392505050565b5f615c91615c8c615c87846145d7565b6147c9565b6145d7565b9050919050565b5f819050919050565b615caa83615c77565b615cbe615cb682615c98565b848454615c26565b825550505050565b5f5f905090565b615cd5615cc6565b615ce0818484615ca1565b505050565b5b81811015615d0357615cf85f82615ccd565b600181019050615ce6565b5050565b601f821115615d4857615d1981615bf9565b615d2284615c0b565b81016020851015615d31578190505b615d45615d3d85615c0b565b830182615ce5565b50505b505050565b5f82821c905092915050565b5f615d685f1984600802615d4d565b1980831691505092915050565b5f615d808383615d59565b9150826002028217905092915050565b615d9982614608565b67ffffffffffffffff811115615db257615db1614caf565b5b615dbc8254614fff565b615dc7828285615d07565b5f60209050601f831160018114615df8575f8415615de6578287015190505b615df08582615d75565b865550615e57565b601f198416615e0686615bf9565b5f5b82811015615e2d57848901518255600182019150602085019450602081019050615e08565b86831015615e4a5784890151615e46601f891682615d59565b8355505b6001600288020188555050505b505050505050565b7f4e487b71000000000000000000000000000000000000000000000000000000005f52602160045260245ffd5b5f615e9682614971565b9150615ea183614971565b925082615eb157615eb06155e2565b5b828206905092915050565b5f81519050919050565b5f81905092915050565b5f615eda82615ebc565b615ee48185615ec6565b9350615ef4818560208601614622565b80840191505092915050565b5f615f0b8284615ed0565b91508190509291505056fea2646970667358221220afe311fc82f54214c98233b1e91b919ccb2eb66a79a08badc4be93b87f2e9ea464736f6c634300081d0033","linkReferences":{}},"methodIdentifiers":{"allowance(address,address)":"dd62ed3e","allowlist(address)":"a7cd52cb","allowlistEnabled()":"94c8e4ff","approve(address,uint256)":"095ea7b3","asset()":"38d52e0f","authorizedRelayers(address)":"29e295c5","balanceOf(address)":"70a08231","convertToAssets(uint256)":"07a2d13a","convertToShares(uint256)":"c6e6f592","decimals()":"313ce567","deposit(uint256,address)":"6e553f65","depositCap()":"dbd5edc7","depositWithERC7702(uint256,address,(address,address,uint256,uint256,bytes))":"661590d6","depositWithPermit2(uint256,address,(address,uint160,uint48,uint48,address,uint48),(uint8,bytes32,bytes32))":"84d29ee0","depositWithPermit2Relayed(address,uint256,address,(address,uint160,uint48,uint48,address,uint48),(uint8,bytes32,bytes32))":"2ee30fff","divest(uint256)":"8ca17995","erc7702Relayer()":"f0f11daa","harvest(uint256)":"ddc63262","initialize(address,address,string,string,bool,uint256,uint256,address)":"c591ae39","invest(uint256)":"2afcf480","isAllowed(address)":"babcc539","maxDeposit(address)":"402d267d","maxMint(address)":"c63d75b6","maxRedeem(address)":"d905777e","maxWithdraw(address)":"ce96cb77","minDeposit()":"41b3d185","mint(uint256,address)":"94bf804d","name()":"06fdde03","owner()":"8da5cb5b","pause()":"8456cb59","paused()":"5c975abb","permit2()":"12261ee7","previewDeposit(uint256)":"ef8b30f7","previewMint(uint256)":"b3d7f6b9","previewRedeem(uint256)":"4cdad506","previewWithdraw(uint256)":"0a28a477","redeem(uint256,address,address)":"ba087652","relayerFee()":"2fdeb111","renounceOwnership()":"715018a6","setAllowlist(address,bool)":"b12527f8","setDepositCap(uint256)":"86651203","setERC7702Relayer(address)":"4781bfed","setMinDeposit(uint256)":"8fcc9cfb","setRelayerAuthorization(address,bool)":"46a9d08c","setRelayerFee(uint256)":"83302a6f","setStrategy(address)":"33a100ca","strategy()":"a8c62e76","symbol()":"95d89b41","totalAssets()":"01e1d114","totalSupply()":"18160ddd","transfer(address,uint256)":"a9059cbb","transferFrom(address,address,uint256)":"23b872dd","transferOwnership(address)":"f2fde38b","unpause()":"3f4ba83a","withdraw(uint256,address,address)":"b460af94","withdrawWithERC7702(uint256,address,address,(address,address,uint256,uint256,bytes))":"b6c706e9"},"id":1}