{"abi":[{"type":"constructor","inputs":[{"name":"_implementation","type":"address","internalType":"contract GroupVault"},{"name":"_permit2","type":"address","internalType":"address"}],"stateMutability":"nonpayable"},{"type":"function","name":"createVault","inputs":[{"name":"asset","type":"address","internalType":"address"},{"name":"admin","type":"address","internalType":"address"},{"name":"name","type":"string","internalType":"string"},{"name":"symbol","type":"string","internalType":"string"},{"name":"allowlistEnabled","type":"bool","internalType":"bool"},{"name":"depositCap","type":"uint256","internalType":"uint256"},{"name":"minDeposit","type":"uint256","internalType":"uint256"}],"outputs":[{"name":"vault","type":"address","internalType":"address"}],"stateMutability":"nonpayable"},{"type":"function","name":"getUserVaultCount","inputs":[{"name":"user","type":"address","internalType":"address"}],"outputs":[{"name":"","type":"uint256","internalType":"uint256"}],"stateMutability":"view"},{"type":"function","name":"getVaultOwner","inputs":[{"name":"vault","type":"address","internalType":"address"}],"outputs":[{"name":"","type":"address","internalType":"address"}],"stateMutability":"view"},{"type":"function","name":"getVaultsByUser","inputs":[{"name":"user","type":"address","internalType":"address"}],"outputs":[{"name":"","type":"address[]","internalType":"address[]"}],"stateMutability":"view"},{"type":"function","name":"implementation","inputs":[],"outputs":[{"name":"","type":"address","internalType":"contract GroupVault"}],"stateMutability":"view"},{"type":"function","name":"isVaultAdmin","inputs":[{"name":"vault","type":"address","internalType":"address"},{"name":"user","type":"address","internalType":"address"}],"outputs":[{"name":"","type":"bool","internalType":"bool"}],"stateMutability":"view"},{"type":"function","name":"permit2","inputs":[],"outputs":[{"name":"","type":"address","internalType":"contract IPermit2"}],"stateMutability":"view"},{"type":"function","name":"userVaults","inputs":[{"name":"","type":"address","internalType":"address"},{"name":"","type":"uint256","internalType":"uint256"}],"outputs":[{"name":"","type":"address","internalType":"address"}],"stateMutability":"view"},{"type":"function","name":"vaultOwner","inputs":[{"name":"","type":"address","internalType":"address"}],"outputs":[{"name":"","type":"address","internalType":"address"}],"stateMutability":"view"},{"type":"event","name":"VaultCreated","inputs":[{"name":"vault","type":"address","indexed":true,"internalType":"address"},{"name":"owner","type":"address","indexed":true,"internalType":"address"},{"name":"asset","type":"address","indexed":true,"internalType":"address"},{"name":"name","type":"string","indexed":false,"internalType":"string"},{"name":"symbol","type":"string","indexed":false,"internalType":"string"},{"name":"allowlistEnabled","type":"bool","indexed":false,"internalType":"bool"},{"name":"depositCap","type":"uint256","indexed":false,"internalType":"uint256"},{"name":"minDeposit","type":"uint256","indexed":false,"internalType":"uint256"}],"anonymous":false},{"type":"event","name":"VaultJoined","inputs":[{"name":"vault","type":"address","indexed":true,"internalType":"address"},{"name":"user","type":"address","indexed":true,"internalType":"address"},{"name":"shares","type":"uint256","indexed":false,"internalType":"uint256"}],"anonymous":false},{"type":"error","name":"FailedDeployment","inputs":[]},{"type":"error","name":"InsufficientBalance","inputs":[{"name":"balance","type":"uint256","internalType":"uint256"},{"name":"needed","type":"uint256","internalType":"uint256"}]}],"bytecode":{"object":"0x60c060405234801561000f575f5ffd5b5060405161114638038061114683398181016040528101906100319190610139565b8173ffffffffffffffffffffffffffffffffffffffff1660808173ffffffffffffffffffffffffffffffffffffffff16815250508073ffffffffffffffffffffffffffffffffffffffff1660a08173ffffffffffffffffffffffffffffffffffffffff16815250505050610177565b5f5ffd5b5f73ffffffffffffffffffffffffffffffffffffffff82169050919050565b5f6100cd826100a4565b9050919050565b5f6100de826100c3565b9050919050565b6100ee816100d4565b81146100f8575f5ffd5b50565b5f81519050610109816100e5565b92915050565b610118816100c3565b8114610122575f5ffd5b50565b5f815190506101338161010f565b92915050565b5f5f6040838503121561014f5761014e6100a0565b5b5f61015c858286016100fb565b925050602061016d85828601610125565b9150509250929050565b60805160a051610fa06101a65f395f8181610223015261053901525f81816102da01526104ee0152610fa05ff3fe608060405234801561000f575f5ffd5b5060043610610091575f3560e01c8063894f4f7111610064578063894f4f71146101315780639c841fef14610161578063a07213e914610191578063c5975788146101c1578063eaf8d338146101f157610091565b806312261ee71461009557806351e8152a146100b35780635c60da1b146100e3578063828edbe814610101575b5f5ffd5b61009d610221565b6040516100aa91906108cd565b60405180910390f35b6100cd60048036038101906100c89190610932565b610245565b6040516100da919061098a565b60405180910390f35b6100eb6102d8565b6040516100f891906109c3565b60405180910390f35b61011b600480360381019061011691906109dc565b6102fc565b6040516101289190610a1f565b60405180910390f35b61014b600480360381019061014691906109dc565b610345565b6040516101589190610a47565b60405180910390f35b61017b60048036038101906101769190610a8a565b6103a9565b6040516101889190610a47565b60405180910390f35b6101ab60048036038101906101a691906109dc565b6103f1565b6040516101b89190610b7f565b60405180910390f35b6101db60048036038101906101d691906109dc565b6104b9565b6040516101e89190610a47565b60405180910390f35b61020b60048036038101906102069190610d05565b6104e8565b6040516102189190610a47565b60405180910390f35b7f000000000000000000000000000000000000000000000000000000000000000081565b5f8173ffffffffffffffffffffffffffffffffffffffff165f5f8573ffffffffffffffffffffffffffffffffffffffff1673ffffffffffffffffffffffffffffffffffffffff1681526020019081526020015f205f9054906101000a900473ffffffffffffffffffffffffffffffffffffffff1673ffffffffffffffffffffffffffffffffffffffff1614905092915050565b7f000000000000000000000000000000000000000000000000000000000000000081565b5f60015f8373ffffffffffffffffffffffffffffffffffffffff1673ffffffffffffffffffffffffffffffffffffffff1681526020019081526020015f20805490509050919050565b5f5f5f8373ffffffffffffffffffffffffffffffffffffffff1673ffffffffffffffffffffffffffffffffffffffff1681526020019081526020015f205f9054906101000a900473ffffffffffffffffffffffffffffffffffffffff169050919050565b6001602052815f5260405f2081815481106103c2575f80fd5b905f5260205f20015f915091509054906101000a900473ffffffffffffffffffffffffffffffffffffffff1681565b606060015f8373ffffffffffffffffffffffffffffffffffffffff1673ffffffffffffffffffffffffffffffffffffffff1681526020019081526020015f208054806020026020016040519081016040528092919081815260200182805480156104ad57602002820191905f5260205f20905b815f9054906101000a900473ffffffffffffffffffffffffffffffffffffffff1673ffffffffffffffffffffffffffffffffffffffff1681526020019060010190808311610464575b50505050509050919050565b5f602052805f5260405f205f915054906101000a900473ffffffffffffffffffffffffffffffffffffffff1681565b5f6105127f000000000000000000000000000000000000000000000000000000000000000061074c565b90508073ffffffffffffffffffffffffffffffffffffffff1663c591ae39898989898989897f00000000000000000000000000000000000000000000000000000000000000006040518963ffffffff1660e01b815260040161057b989796959493929190610e5a565b5f604051808303815f87803b158015610592575f5ffd5b505af11580156105a4573d5f5f3e3d5ffd5b50505050335f5f8373ffffffffffffffffffffffffffffffffffffffff1673ffffffffffffffffffffffffffffffffffffffff1681526020019081526020015f205f6101000a81548173ffffffffffffffffffffffffffffffffffffffff021916908373ffffffffffffffffffffffffffffffffffffffff16021790555060015f3373ffffffffffffffffffffffffffffffffffffffff1673ffffffffffffffffffffffffffffffffffffffff1681526020019081526020015f2081908060018154018082558091505060019003905f5260205f20015f9091909190916101000a81548173ffffffffffffffffffffffffffffffffffffffff021916908373ffffffffffffffffffffffffffffffffffffffff1602179055508773ffffffffffffffffffffffffffffffffffffffff163373ffffffffffffffffffffffffffffffffffffffff168273ffffffffffffffffffffffffffffffffffffffff167f7ce223f6df5485c478ef475436a1e33d29c9216606c1767569553b94d82122e08989898989604051610739959493929190610ee4565b60405180910390a4979650505050505050565b5f610757825f61075e565b9050919050565b5f814710156107a65747826040517fcf47918100000000000000000000000000000000000000000000000000000000815260040161079d929190610f43565b60405180910390fd5b763d602d80600a3d3981f3363d3d373d3d3d363d730000008360601b60e81c175f526e5af43d82803e903d91602b57fd5bf38360781b176020526037600983f090505f73ffffffffffffffffffffffffffffffffffffffff168173ffffffffffffffffffffffffffffffffffffffff160361084d576040517fb06ebf3d00000000000000000000000000000000000000000000000000000000815260040160405180910390fd5b92915050565b5f73ffffffffffffffffffffffffffffffffffffffff82169050919050565b5f819050919050565b5f61089561089061088b84610853565b610872565b610853565b9050919050565b5f6108a68261087b565b9050919050565b5f6108b78261089c565b9050919050565b6108c7816108ad565b82525050565b5f6020820190506108e05f8301846108be565b92915050565b5f604051905090565b5f5ffd5b5f5ffd5b5f61090182610853565b9050919050565b610911816108f7565b811461091b575f5ffd5b50565b5f8135905061092c81610908565b92915050565b5f5f60408385031215610948576109476108ef565b5b5f6109558582860161091e565b92505060206109668582860161091e565b9150509250929050565b5f8115159050919050565b61098481610970565b82525050565b5f60208201905061099d5f83018461097b565b92915050565b5f6109ad8261089c565b9050919050565b6109bd816109a3565b82525050565b5f6020820190506109d65f8301846109b4565b92915050565b5f602082840312156109f1576109f06108ef565b5b5f6109fe8482850161091e565b91505092915050565b5f819050919050565b610a1981610a07565b82525050565b5f602082019050610a325f830184610a10565b92915050565b610a41816108f7565b82525050565b5f602082019050610a5a5f830184610a38565b92915050565b610a6981610a07565b8114610a73575f5ffd5b50565b5f81359050610a8481610a60565b92915050565b5f5f60408385031215610aa057610a9f6108ef565b5b5f610aad8582860161091e565b9250506020610abe85828601610a76565b9150509250929050565b5f81519050919050565b5f82825260208201905092915050565b5f819050602082019050919050565b610afa816108f7565b82525050565b5f610b0b8383610af1565b60208301905092915050565b5f602082019050919050565b5f610b2d82610ac8565b610b378185610ad2565b9350610b4283610ae2565b805f5b83811015610b72578151610b598882610b00565b9750610b6483610b17565b925050600181019050610b45565b5085935050505092915050565b5f6020820190508181035f830152610b978184610b23565b905092915050565b5f5ffd5b5f5ffd5b5f601f19601f8301169050919050565b7f4e487b71000000000000000000000000000000000000000000000000000000005f52604160045260245ffd5b610bed82610ba7565b810181811067ffffffffffffffff82111715610c0c57610c0b610bb7565b5b80604052505050565b5f610c1e6108e6565b9050610c2a8282610be4565b919050565b5f67ffffffffffffffff821115610c4957610c48610bb7565b5b610c5282610ba7565b9050602081019050919050565b828183375f83830152505050565b5f610c7f610c7a84610c2f565b610c15565b905082815260208101848484011115610c9b57610c9a610ba3565b5b610ca6848285610c5f565b509392505050565b5f82601f830112610cc257610cc1610b9f565b5b8135610cd2848260208601610c6d565b91505092915050565b610ce481610970565b8114610cee575f5ffd5b50565b5f81359050610cff81610cdb565b92915050565b5f5f5f5f5f5f5f60e0888a031215610d2057610d1f6108ef565b5b5f610d2d8a828b0161091e565b9750506020610d3e8a828b0161091e565b965050604088013567ffffffffffffffff811115610d5f57610d5e6108f3565b5b610d6b8a828b01610cae565b955050606088013567ffffffffffffffff811115610d8c57610d8b6108f3565b5b610d988a828b01610cae565b9450506080610da98a828b01610cf1565b93505060a0610dba8a828b01610a76565b92505060c0610dcb8a828b01610a76565b91505092959891949750929550565b5f610de48261089c565b9050919050565b610df481610dda565b82525050565b5f81519050919050565b5f82825260208201905092915050565b8281835e5f83830152505050565b5f610e2c82610dfa565b610e368185610e04565b9350610e46818560208601610e14565b610e4f81610ba7565b840191505092915050565b5f61010082019050610e6e5f83018b610deb565b610e7b602083018a610a38565b8181036040830152610e8d8189610e22565b90508181036060830152610ea18188610e22565b9050610eb0608083018761097b565b610ebd60a0830186610a10565b610eca60c0830185610a10565b610ed760e0830184610a38565b9998505050505050505050565b5f60a0820190508181035f830152610efc8188610e22565b90508181036020830152610f108187610e22565b9050610f1f604083018661097b565b610f2c6060830185610a10565b610f396080830184610a10565b9695505050505050565b5f604082019050610f565f830185610a10565b610f636020830184610a10565b939250505056fea2646970667358221220a7924265e5381a7ce25c788e421c9a4b7831ac5432d70ceee027f4238398262364736f6c634300081d0033","linkReferences":{}},"methodIdentifiers":{"createVault(address,address,string,string,bool,uint256,uint256)":"eaf8d338","getUserVaultCount(address)":"828edbe8","getVaultOwner(address)":"894f4f71","getVaultsByUser(address)":"a07213e9","implementation()":"5c60da1b","isVaultAdmin(address,address)":"51e8152a","permit2()":"12261ee7","userVaults(address,uint256)":"9c841fef","vaultOwner(address)":"c5975788"},"id":2}